:100000000C9470000C9424020C948D000C948D00C0
:100010000C948D000C948D000C948D000C948D002C
:100020000C948D000C948F000C948D000C948D001A
:100030000C948D000C948D000C948D000C948D000C
:100040000C948D000C948D000C948D000C948D00FC
:100050000C948D000C948D000C948D000C948D00EC
:100060000C948D000C948D0008000000BE92244971
:10007000123EABAAAA2ABECDCCCC4C3E00000080DA
:10008000BEABAAAAAA3E00000000BF000000803F4D
:100090000000000000084178D3BB4387D1133D190D
:1000A0000E3CC3BD4282AD2B3E68EC8276BED98F3A
:1000B000E1A93E4C80EFFFBE01C4FF7F3F0000007E
:1000C000000005A84CCDB2D44EB93836A9020C5068
:1000D000B9918688083CA6AAAA2ABE000000803FE3
:1000E00011241FBECFEFD8E0DEBFCDBF11E0A0E0EE
:1000F000B1E0E4E0F2E102C005900D92A63CB10748
:10010000D9F712E0A6ECB1E001C01D92A836B10704
:10011000E1F70E9474030C9400090C9400001F92F4
:100120000F920FB60F9211242F933F934F935F932B
:100130008F939F93AF93BF93EF93FF932091CF0142
:100140003091D0014091D1015091D2018091D601DE
:100150009091D701A091D801B091D901820F931F3E
:10016000A41FB51F8093CF019093D001A093D1011C
:10017000B093D2018091CF019091D001A091D10193
:10018000B091D201072E79E1B695A79597958795FD
:100190007A95D1F7702D282F8093DA01E7EEF1E000
:1001A000E80FF11D80818093C801982F9A5F90938A
:1001B000B3008093B400213069F0213028F021345D
:1001C00079F02234C1F412C0E5E2F0E080818D7F45
:1001D000808311C0E5E2F0E08081846080830BC001
:1001E000E5E2F0E080818B7F808305C0E5E2F0E00E
:1001F0008081826080832091CD013091CE01C90140
:1002000001969093CE018093CD012050304131F57D
:100210001092CE011092CD018091E60190E08823EA
:1002200009F491E09093E6018091E601882331F092
:10023000EBE2F0E080818062808305C0EBE2F0E0D9
:1002400080818F7D80838091D301882339F0EBE218
:10025000F0E08081806480831092D301FF91EF9160
:10026000BF91AF919F918F915F914F913F912F914E
:100270000F900FBE0F901F901895982FE8E2F0E0B6
:1002800080818F7D808399231CF4808180628083AC
:10029000E8E2F0E080818F7E808396FF03C080815A
:1002A00080618083E8E2F0E08081877F808395FF32
:1002B00003C0808188608083E8E2F0E080818B7FEA
:1002C000808394FF03C0808184608083EBE2F0E050
:1002D0008081806180832CED35E0C9010197F1F7C1
:1002E00080818F7E8083C9010197F1F708951F9364
:1002F000182FEBE2F0E080818F77808380818F7E02
:100300008083812F0E943D01812F8295807F0E94F2
:100310003D011F910895DF93CF930F92CDB7DEB7C4
:10032000823071F0833018F48130A9F405C0833035
:1003300059F0843081F40CC0862F815889830BC01A
:10034000862F8154898307C0862F8D56898303C0E9
:10035000862F8D52898389810E9477018CE291E0FA
:100360000197F1F70F90CF91DF9108951F93182F08
:10037000EBE2F0E080818068808380818F7E8083E3
:10038000812F0E943D01812F8295807F0E943D0137
:100390001F9108951F93142F0E948B01812F0E949B
:1003A000B6011F910895EF92FF920F931F93DF9371
:1003B000CF930F92CDB7DEB78C0119828981F801F6
:1003C000E80FF11D80818823D1F00F2EFCE2EF2E83
:1003D000F1E0FF2EF02D8981F801E80FF11D8081F9
:1003E0000E94B60189818F5F8983C7010197F1F768
:1003F0008981F801E80FF11D8081882361F70F9052
:10040000CF91DF911F910F91FF90EF9008950F937F
:100410001F938A010E948B01C8010E94D3011F9182
:100420000F910895EBE2F0E080818F7B808381E083
:1004300061E040E051E00E94070282E061E049E0B3
:1004400051E00E940702FFCF1F920F920FB60F924A
:1004500011242F933F934F935F936F937F938F93C9
:100460009F93AF93BF93EF93FF93EBE2F0E0808114
:100470008F7B8083F89481E061E042E151E00E944B
:10048000070282E061E049E051E00E94070220E3B8
:1004900035E74CE251E0CA010197F1F721503040B5
:1004A000D1F7FFCF0F931F9328EE33E04CE251E0DA
:1004B000CA010197F1F721503040D1F7EBE2F0E0AB
:1004C00080818F77808380818F7E808380E30E940C
:1004D0003D0180E395E70197F1F780E30E943D013C
:1004E00008E512E0C8010197F1F780E30E943D01A1
:1004F000C8010197F1F788E20E943D010CE211E08A
:10050000C8010197F1F788E20E947701C8010197BD
:10051000F1F788E00E947701C8010197F1F781E0C7
:100520000E94770180EE9EE20197F1F786E00E943B
:100530007701C8010197F1F78CE00E947701C801AB
:100540000197F1F71F910F910895ECE7F0E080819A
:100550008064808380818F7D808386EC80937A00A5
:100560000895ECE7F0E090818F70907F892B808375
:10057000EAE7F0E0808180648083808186FDFDCFA2
:100580002091780030917900822F932F0895A1EB6C
:10059000B0E08C9181608C938C918D7F8C938C9149
:1005A0008B7F8C93E0EBF0E080818F7E8083808175
:1005B0008062808380818064808380818068808382
:1005C00080818160808380818D7F80838C91877F13
:1005D0008C93E9E6F0E080818560808308954F92F6
:1005E0005F926F927F928F929F92BF92CF92DF9293
:1005F000EF92FF920F931F93CF93DF9398EF899F12
:10060000C001112464E670E00E94A808BB24C7EE74
:10061000D1E0462E55243201882477FC8094982C12
:10062000CB2CDD24B601882777FD8095982F0E947A
:10063000F1062BED3FE049E450E40E94C20720E0C0
:1006400030E040E85CE30E94C2070E9425087B017D
:100650008C01CC0EDD1EC401B3010E94F106A8017D
:1006600097010E94C2070E94C306F6016083B394FB
:10067000F0E8BF16A9F6DF91CF911F910F91FF907F
:10068000EF90DF90CF90BF909F908F907F906F9072
:100690005F904F9008950F931F93DF93CF9300D0F7
:1006A00000D00F92CDB7DEB78E010F5F1F4FB8019C
:1006B0004AE050E00E94CF08C8010E94D3010F9089
:1006C0000F900F900F900F90CF91DF911F910F918E
:1006D00008950F931F938A010E948B01C8010E9405
:1006E0004B031F910F9108952F923F924F925F926B
:1006F0006F927F928F929F92AF92BF92CF92DF9232
:10070000EF92FF920F931F93CF93DF938FEF84B9F4
:100710008CEF87B98AEF8AB9ABE2B0E08C91816047
:100720008C938C9184608C93E5E2F0E08081877FEC
:1007300080838C91877F8C9380818D7F8083808163
:100740008B7F8083109289001092880010928B001A
:1007500010928A001092B3001092B40080818F7EB4
:10076000808380818F7D80838C918F7B8C9380812F
:10077000816080831092D3011092E6010E945202A0
:100780000E94A50280E40E9477011092670280E037
:10079000C5E4D1E0FE01E80FF11D80810E94B601A1
:1007A000809167028F5F80936702803498F381E0C5
:1007B00062E04BE151E00E94070282E061E042E228
:1007C00051E00E94070280E197E22CE231E0F9015A
:1007D0003197F1F70197D9F7E0E7F0E080818E7F5C
:1007E00080830E94C70282E061E00E948B01109228
:1007F000CA010BE211E00F2EF4EFEF2EF1E0FF2E15
:10080000F02DCCE2D1E0C8010E94D3019701CE01C6
:100810000197F1F721503040D1F78091CA018F5FE5
:100820008093CA01883078F382E38093C90180E520
:100830000E94EF026091C90170E0882777FD8095E2
:10084000982F0E94F10620E030E040E85FE40E942B
:10085000C20720E032ED47EB56E40E945B060E949F
:10086000C3066093D6017093D7018093D80190930B
:10087000D901E5E2F0E080818061808380E197E248
:100880002CE231E0F9013197F1F70197D9F7E5E270
:10089000F0E080818E7F8083E0E7F0E080818160FE
:1008A0008083E9E6F0E0808185608083EDE3F0E01D
:1008B00080818160808378948FEF8093D30181E081
:1008C00090E09093CE018093CD018091CD019091E5
:1008D000CE01892BD1F78EE18093DB0181E061E0CD
:1008E0004DE251E00E94070280E40E9477011092DD
:1008F000670280E0C5E8D1E0FE01E80FF11D8081CC
:100900000E94B601809167028F5F809367028034F6
:1009100098F380E00E94B1029093C7018093C601D2
:1009200080E58093CA01C6E3D1E00FE311E00E94A5
:10093000EF0281E061E0AE010E9407024091CA012E
:1009400082E061E050E00E94690387E00E94B60106
:10095000C8010E94D3014091DB0182E066E050E0D3
:100960000E94690385E00E94B601C8010E94D3017C
:100970008091CD019091CE01892BD1F78091CA0150
:100980008B5F8093CA01803690F280E00E94B102B2
:10099000819710F40E94120281E061E040E00E9421
:1009A000CA0181E062E041E00E94CA0181E063E0A7
:1009B00042E00E94CA0181E064E043E00E94CA0173
:1009C00081E491E00E94D30186E00E94B601E5E255
:1009D000F0E080818062808310E00F2EFCED4F2ECE
:1009E000F1E05F2EF02D0F2EFCE2CF2EF1E0DF2E96
:1009F000F02D0F2EF6EEAF2EF1E0BF2EF02D0F2EC4
:100A0000F0EA2F2E3324F02D0F2EFFE36F2EF1E0AE
:100A10007F2EF02D0F2EF5E28F2E9924F02D15C08C
:100A200081E00E94B102212F30E0220F331FF2013A
:100A3000E20FF31F9183808328EE33E0C601019714
:100A4000F1F721503040D1F71F5F153048F3E20134
:100A500080E090E0A0E0B0E07C018D0169917991A7
:100A6000882777FD8095982F0E94F1069B01AC01A5
:100A7000C801B7010E94F7057B018C01CA15DB058F
:100A800069F720E030E040EA50E40E945B069B01F9
:100A9000AC0160E070EC8FE794E40E945B0620E01C
:100AA00030E040E85FE30E94F6059B01AC0160E0A6
:100AB00070E48CE196E40E945B0620E030E44CE1B7
:100AC00056E40E945B060E94820720E030EE46E773
:100AD00055E40E945B062FE03FEC4BE55BE30E9490
:100AE000F7059B01AC0160E070E080E89FE30E94A5
:100AF0005B0623E333E948E853E40E94F6050E94CD
:100B0000C3066093DB0180E00E94B1029093C701AD
:100B10008093C60196958795969587959695879526
:100B20008093CC019101281B31093093D50120938A
:100B3000D4012436310538F084E690E09093D50155
:100B40008093D40109C02135310530F4E0E5F0E0AF
:100B5000F093D501E093D4019091CC018091CB0129
:100B6000981749F0E4EDF1E080810E94EF02809156
:100B7000CC018093CB014091D4015091D50182E00A
:100B800061E00E94690387E00E94B601C3010E94F0
:100B9000D3014091DB0182E066E050E00E946903EE
:100BA00085E00E94B601C3010E94D3014091CC01AF
:100BB00082E06AE050E00E9469039091DB019A3282
:100BC00020F0F401808181608083973220F4F40169
:100BD00080818E7F808380E00E94B102819710F037
:100BE00010E033CF0E94120210E02FCF5058BB27E5
:100BF000AA270ED048C139D130F03ED120F031F4CF
:100C00009F3F11F41EF42EC10EF4E095E7FB24C1C2
:100C1000E92F4AD180F3BA17620773078407950753
:100C200018F071F49EF562C10EF4E0950B2EBA2F08
:100C3000A02D0B01B90190010C01CA01A0011124E2
:100C4000FF27591B99F0593F50F4503E68F11A168E
:100C5000F040A22F232F342F4427585FF3CF46951F
:100C600037952795A795F0405395C9F77EF41F1641
:100C7000BA0B620B730B840BBAF09150A1F0FF0F0B
:100C8000BB1F661F771F881FC2F70EC0BA0F621FF7
:100C9000731F841F48F4879577956795B795F795E7
:100CA0009E3F08F0B3CF9395880F08F09927EE0F79
:100CB0009795879508950CD0E6C0DED040F0D5D04A
:100CC00030F021F45F3F19F0C7C0511110C1CAC004
:100CD000EBD098F39923C9F35523B1F3951B550B2A
:100CE000BB27AA2762177307840738F09F5F5F4FFF
:100CF000220F331F441FAA1FA9F333D00E2E3AF040
:100D0000E0E830D091505040E695001CCAF729D059
:100D1000FE2F27D0660F771F881FBB1F26173707A8
:100D20004807AB07B0E809F0BB0B802DBF01FF27D8
:100D300093585F4F2AF09E3F510568F08DC0D7C091
:100D40005F3FECF3983EDCF3869577956795B79512
:100D5000F7959F5FC9F7880F911D9695879597F92D
:100D60000895E1E0660F771F881FBB1F62177307A6
:100D70008407BA0720F0621B730B840BBA0BEE1FBB
:100D800088F7E095089598D088F09F5790F0B92F94
:100D90009927B751A0F0D1F0660F771F881F991FD0
:100DA0001AF0BA95C9F712C0B13081F09FD0B1E006
:100DB00008959CC0672F782F8827B85F39F0B93F16
:100DC000CCF3869577956795B395D9F73EF49095D2
:100DD0008095709561957F4F8F4F9F4F0895E89450
:100DE00009C097FB3EF490958095709561957F4F73
:100DF0008F4F9F4F9923A9F0F92F96E9BB27939521
:100E0000F695879577956795B795F111F8CFFAF430
:100E1000BB0F11F460FF1BC06F5F7F4F8F4F9F4F61
:100E200016C0882311F096E911C0772321F09EE8BF
:100E3000872F762F05C0662371F096E8862F70E025
:100E400060E02AF09A95660F771F881FDAF7880FFF
:100E50009695879597F9089597F99F6780E870E0D0
:100E600060E008959FEF80EC089500240A94161620
:100E7000170618060906089500240A941216130688
:100E8000140605060895092E0394000C11F4882316
:100E900052F0BB0F40F4BF2B11F460FF04C06F5F32
:100EA0007F4F8F4F9F4F089557FD9058440F551F08
:100EB00059F05F3F71F04795880F97FB991F61F0DC
:100EC0009F3F79F087950895121613061406551F53
:100ED000F2CF4695F1DF08C0161617061806991FBF
:100EE000F1CF86957105610508940895E894BB27B4
:100EF00066277727CB0197F908950EF0ACC0B2CFE3
:100F00006894AACFD9DFC8F39923D1F3C6F3DF934E
:100F1000CF931F930F93FF92C92FDD2788232AF0C9
:100F20002197660F771F881FDAF720E030E040E84E
:100F30005FEB9FE3883920F0803E30F021968F7779
:100F400056DEE8E6F0E003C052DEE5E9F0E091D0DD
:100F50008B01BE01EC01FB2E6F5771097595771F50
:100F6000880B990B3EDF28E132E741E35FE316D0BF
:100F7000AF2D9801AE01FF900F911F91CF91DF919E
:100F800047DE81CF0BD07FCF70DF28F075DF18F000
:100F9000952309F061CF66CF1124A9CF85DFA0F397
:100FA000959FD1F3950F50E0551F629FF001729FFE
:100FB000BB27F00DB11D639FAA27F00DB11DAA1F1D
:100FC000649F6627B00DA11D661F829F2227B00D6A
:100FD000A11D621F739FB00DA11D621F839FA00DF5
:100FE000611D221F749F3327A00D611D231F849F45
:100FF000600D211D822F762F6A2F11249F5750409C
:101000008AF0E1F088234AF0EE0FFF1FBB1F661F36
:10101000771F881F91505040A9F79E3F510570F0EF
:101020001BCF65CF5F3FECF3983EDCF38695779559
:101030006795B795F795E7959F5FC1F7FE2B880FEA
:10104000911D9695879597F908959F9338D00F90A5
:1010500007FCEE5F5BC09F3F31F0915020F4879515
:1010600077956795B795880F911D9695879597F910
:101070000895DF93CF931F930F93FF92EF92DF9228
:101080007B018C01689405C0DA2EEF0187DFFE0139
:10109000E894A5912591359145915591AEF3EF01D5
:1010A000B7DDFE019701A801DA9479F7DF90EF90A0
:1010B000FF900F911F91CF91DF910895D3CEFCDE69
:1010C000E8F3E894E0E0BB279F57F0F02AED3FE01B
:1010D00049EC06C0EE0FBB0F661F771F881F28F074
:1010E000B23A62077307840728F0B25A620B730B97
:1010F000840BE3959A9572F7803830F49A95BB0F7C
:10110000661F771F881FD2F79048A7CFEF93E0FFA5
:1011100006C0A2EA2AED3FE049EC5FEB79DDB3DEE1
:101120000F90039401FC9058E2ECF0E000C09F9314
:101130008F937F936F93FF93EF939B01AC0122DF1B
:10114000EF91FF9196DF2F913F914F915F911ACFD1
:1011500097FB092E07260AD077FD04D00CD006D0C5
:1011600000201AF4709561957F4F0895F6F79095D9
:1011700081959F4F0895AA1BBB1B51E107C0AA1F71
:10118000BB1FA617B70710F0A61BB70B881F991F28
:101190005A95A9F780959095BC01CD010895FB0162
:1011A0009F01E8944230C4F04532B4F44A3029F447
:1011B00097FB1EF4909581959F4F642F77270E948F
:1011C000BB08805D8A330CF0895D8193CB01009769
:1011D000A1F716F45DE251931082C9010C94F00856
:1011E000DC01FC01672F71917723E1F7329704C08E
:1011F0007C916D9370836291AE17BF07C8F3089519
:04120000F894FFCF90
:101204004C6F7374204143210052657365744F46DB
:1012140046004F7665724C6F61640046494C4D360A
:10122400390031312D30362D3232002A002D2D2D4A
:101234002D2D2D2D2D0053312D32334B487A002086
:1012440000203530000012121212121B00000E1181
:101254001D15151900000004040404060000021FF3
:10126400011D131900010F06090E010600181807C5
:101274000808080700000014171D161700000009CD
:1012840015120000000000190915150A001A0C07B0
:10129400080F010E0000000E010D090E00000019D8
:1012A4000909191E00010F06090E01060018180786
:1012B4000808080700000014171D1617000000098D
:0612C400151200000000FD
:00000001FF
